:020000040000FA
:10000000780600206D0200008102000083020000DB
:10001000850200008502000085020000000000004B
:100020000000000000000000000000008502000049
:100030008502000000000000850200002712000079
:100040008502000085020000850200008502000094
:100050008502000085020000850200008502000084
:100060008502000085020000850200008502000074
:100070008502000085020000850200008502000064
:100080008502000085020000351400008502000092
:100090008502000085020000850200008502000044
:1000A0008502000085020000850200008502000034
:1000B0008502000085020000850200008502000024
:1000C0008502000085020000850200008502000014
:1000D0008502000085020000850200008502000004
:1000E000C50C0000000000000000000085020000B8
:1000F00085020000850200008502000085020000E4
:1001000085020000850200008502000085020000D3
:1001100000000000000000008502000085020000D1
:1001200085020000850200008502000085020000B3
:100130000113000085020000850200008502000016
:1001400000000000000000000000000000000000AF
:100150008502000085020000850200008502000083
:10016000000000000000000000000000000000008F
:10017000000000000000000000000000000000007F
:10018000000000000000000000000000000000006F
:10019000000000000000000000000000000000005F
:1001A000000000000000000000000000000000004F
:1001B0008502000085020000850200008502000023
:1001C0008502000085020000850200008502000013
:1001D0008502000085020000850200008502000003
:1001E000850200008502000085020000000000007A
:1001F000000000008502000085020000850200006A
:1002000085020000850200000000000000000000E0
:1002100085020000850200008502000085020000C2
:1002200085020000850200008502000085020000B2
:1002300085020000850200008502000085020000A2
:100240008502000085020000850200008502000092
:100250008502000085020000850200008502000082
:100260008502000085020000850200004EF68850DD
:10027000CEF20000016841F47001016000F004B8A2
:10028000FEE7FEE7FEE70000DFF80CD000F01AF80A
:1002900000480047B10C000078060020EFF3108002
:1002A00072B67047EFF310807047EFF3108062B6BC
:1002B000704730BF704780F311887047EFF31180AB
:1002C00070470000064C074D06E0E06840F001036F
:1002D00094E8070098471034AC42F6D3FFF7D8FFF4
:1002E000E0190000001A0000B1FBF2F3B1FBF3FCCF
:1002F00070B4944588BF5B1CB3F5984F27D8132280
:10030000B3FBF2FC0CFB02F49C4219D1114B03EB42
:10031000420333F8085C03689BB243F04104046075
:10032000ACF1010404F03F063543C560C4F3831407
:10033000846103600CFB02F0B1FBF0F070BC70470D
:10034000521E042ADCD25B1CB3F5984FD7D970BC7F
:1003500000207047361400000C4804210022C0E938
:10036000001282600A4B0822C0E9032314300160A6
:10037000491F41600A21C0E9021203F1080101612D
:10038000022302460A21034800F010B94000002071
:100390000100002000100440016821F0010101600B
:1003A000704701210160016A11F4004FFBD1B021B7
:1003B00041620021416381630121026A12F4004F0E
:1003C000FBD10162491C2029F7D90C21416201218E
:1003D000026A12F4004FFBD10162491C2029F7D9AF
:1003E00040687047B1F5004F04BF40687047026A2B
:1003F00012F4004FFBD10822426201F03F0101627A
:10040000016A11F4004FFBD170470268114301608B
:100410007047002904BF0069704701291CBF0020F4
:100420007047D0F84011D0F8440189B241EA004049
:1004300070472DE9F0014FF0730C002B18BF4FF0FF
:100440007B0CC0F884C001F03F06C0F88060D0F893
:10045000801011F4004FFAD1D0F888108DB2D0F886
:100460008C101FFA81FCD0F890108CB2D0F8941048
:100470008BB2D0F89810002789B211F4807F03F472
:100480000058976003D0B8F1000F03D006E0B8F130
:10049000000F03D04FF04008C2F8088013F4804FDB
:1004A00004BFC3F38A04146008D0C3F30C0844EA01
:1004B00008441460946844F00404946011F4804F7C
:1004C00003D0946844F48074946011F4805F2DD05C
:1004D00013F4804F0DD0CCF30C0345EA03436FF0C7
:1004E00060445360A3420FD1137A13F0400F0FD131
:1004F0000AE0CCF38A03A3F5E0645360FF3C03D128
:10050000137A13F0400F03D1936843F0080393600C
:100510001CF4004F03D0936843F0280393601CF44D
:10052000804F03D0936843F01803936011F4006F79
:1005300003D0936843F00103936011F4806F03D0FC
:10054000936843F00203936011F4004F02BFD76039
:10055000BDE8F001704701F00F0CC2F80CC0117A31
:1005600011F0400F11D10021156900F19C03BCF17D
:10057000000F0AD953F8044B6C54491C8C4502D91E
:10058000240A6C54491C6145F4D30421C0F884103A
:10059000C0F88060D0F8801011F4004FFAD1906854
:1005A00040F080009060BDE8F00170472DE9FF4FFA
:1005B0004FF0000A016A11F4004FFBD1D2F800900D
:1005C000B9F5006F06D2117A11F0040F08BF4FF091
:1005D000000B01D04FF0010B00274FF093083D4670
:1005E00039463E46BC46052B24BF04B0BDE8F08F1B
:1005F000DFE803F003071A0A14004FF480714D017D
:1006000010E04FF480710FE04FF4005569104FF681
:10061000FF7641F6FF7C4FF0D30805E04FF400551C
:100620004FF490514FF0010A946841F6FF7314F0B3
:10063000080F0CD0BBF1000F08BF0026D2F804C091
:100640000EBF03EA8C0C1FFA8CF6CCF30C4C4FF067
:10065000280E3EEA040E08BF4CF4004C4FF0180E72
:100660003EEA040E08BF4CF4804C14F0380F1CBF57
:1006700041F4805148F0400848F02008BBF1000FD9
:1006800007D0C9F30C431FFA89F72B4343F44049C1
:1006900004E003EA89032B4343F40049D56805F0DD
:1006A0000F030B4314F4007F08BF43F0800314F0E2
:1006B000010F18BF43F4006314F0020F18BF43F496
:1006C0008063BAF1000F14D00021D2F810A000F11D
:1006D0003C04002D0DD91AF80120491C8D4204D983
:1006E0001AF801B0491C42EA0B2244F8042BA94233
:1006F000F1D3C0F824808662C0F82CC00763C0F82C
:1007000034908363019901F03F01016204B0BDE8B8
:10071000F08FC1B1012904BFD0F80011D0F8040155
:1007200016D0022904BFD0F82011D0F824010FD030
:10073000032911BF0021D0F86011D0F8640141EA0B
:1007400000410846704741686FF01F024260F8E7B9
:1007500041EA0041F5E7D0F8003412F0010F14BF70
:100760000B438B43C0F8003412F0020FD0F8202462
:1007700014BF114322EA0101C0F8201470472DE98B
:10078000F00301264FF0000C0325C2F3411706FACF
:100790000CF40C4211D0D0F8C48F4FEA4C0405FA87
:1007A00004F928EA0908C0F8C48FD0F8C48F07FA02
:1007B00004F448EA0404C0F8C44F0CF1010C0CF036
:1007C000FF0CBCF1080FE2D3D0F800C512F0010F06
:1007D00014BF4CEA010C2CEA010CC0F800C5D0F89B
:1007E00004C512F0020F14BF4CEA010C2CEA010CF4
:1007F000C0F804C5D0F808C512F0040F14BF4CEAC5
:10080000010C2CEA010CC0F808C5D0F818C512F08C
:10081000080F14BF4CEA010C2CEA010CC0F818C5F3
:1008200012F0100FD0F83C2514BF0A438A43C0F8D9
:100830003C25D0F80C2513F0010F14BF0A438A435E
:10084000C0F80C25D0F8102513F0020F14BF0A438E
:100850008A43C0F81025D0F8142513F0040F14BFF4
:100860000A438A43C0F81425D0F81C2513F0080F5A
:1008700014BF0A438A43C0F81C25D0F8442513F45A
:10088000007F14BF0A438A43C0F84425D0F84025AE
:1008900013F4407F14BF0A438A43C0F84025D0F8C0
:1008A0002825002B0CBF114322EA0101C0F82815AE
:1008B000BDE8F003704700000E4AC0F30741D26E56
:1008C00001238B401A420C4A1ABF02EBC10149684E
:1008D00052F83110020AD1F82C354FF00F0C0CFAF7
:1008E00002FC00F00F0023EA0C0390401843C1F80B
:1008F0002C05704700E00F40F015000050F8210073
:10090000704730B50C4605460222FFF724FF21460A
:100910002846BDE8304008236622FFF730BF30B5D7
:100920000C4605460022FFF716FF21462846BDE883
:10093000304008230122FFF722BF30B50C460546A0
:1009400008230122FFF71BFF21462846BDE830405F
:100950000122FFF700BF30B50C4605460222FFF723
:10096000FAFE21462846BDE8304008230122FFF761
:1009700006BF40F8212070471649042804BF0868C4
:1009800040F4803018D0052804BF086840F40030D7
:1009900012D0062812D00F2815D0102838BF704763
:1009A000103800F01F01012202FA01F142090A4841
:1009B00050F822000160704708607047086840F4F2
:1009C0008020086070474FF0E020016941F002018B
:1009D0000161704724ED00E03C17000010B5FFF7FF
:1009E00064FC002818BF012010BD000070B44B4DFE
:1009F0002A6E296F11F0004F14BF01F0700002F051
:100A00003000202808BF464818D005DC88B11028DF
:100A100008BF444812D009E0302808BF47F23050E0
:100A20000CD0702808BF4FF4004007D070BC0020E5
:100A300070477C203C4B00EA121018584FF0FF33EF
:100A400011F0004F02D011F4006F06D001F0004CFD
:100A500002F400645CEA040C36D1D5F860C1D5F824
:100A6000644104F01F06C4F30424641C761C16FBC6
:100A700004F46400B0FBF4F0CCF309044443CCF379
:100A8000892C00FB0CF0D5F810C004EB902042F448
:100A900080020CF4704CBCF5804F08BF234B13D080
:100AA00009DCBCF5005F08BF214B0DD0BCF5405FF1
:100AB00008BF204B08E0BCF5E04F08BF1E4B03D039
:100AC000BCF5104F08BF1D4B12F4800F21D011F060
:100AD000004F19D011F0804F09D011F4006F0CD0E5
:100AE00001F0004C02F400625CEA020205D0C1F39E
:100AF000C551491CB0FBF1F00BE04000C1F3865139
:100B0000491CB0FBF1F004E0C2F3C351491CB0FB37
:100B1000F1F0834238BF184670BC704700E00F40C8
:100B200000093D000024F40094170000005A6202FE
:100B300000B4C40480F0FA0240787D01002D310138
:100B4000C0F307230749C0B2194401F07043C1F351
:100B5000130143EA411141EA800040F00070012294
:100B60000260704700E60F40C0F307230C49C0B293
:100B7000194401F07043C1F3130143EA411141EA02
:100B8000800040F0007181B001220A6000220092D2
:100B90000098401C00901028FAD30A6001B07047FA
:100BA00000E50F404FF0E020016941F005010161CF
:100BB00070474FF0E020016941F002010161704788
:100BC0004FF0E021401E48617047816911F0100F1D
:100BD0000CBF00684FF0FF307047826912F0200FA1
:100BE00006BF01600120002070478069012121EAD1
:100BF00010107047D0F818C01CF0080FFAD1D0F8C8
:100C00002CC02CF0100CC0F82CC0D0F830C02CF048
:100C1000010C2CF4407CC0F830C0D0F830C0B1EBEF
:100C2000021F34BF4CF0200C2CF0200CC0F830C058
:100C300038BF5208C900B1FBF2F1491C49088A09C2
:100C4000426201F03F018162C36200218161C16A99
:100C500041F01001C162016B40F2013211430163A6
:100C60007047C16A41F01001C162016B40F201326C
:100C700011430163704711434163704741647047FA
:100C8000826B114381637047002914BF006CC06BF5
:100C9000704702E008C8121F08C1002AFAD1704745
:100CA0007047002001E001C1121F002AFBD17047EC
:100CB00000F0AAF80025024C00F060FA2570FBE76E
:100CC0003400002070B50F4D00212846FFF7A1FB2E
:100CD00004460A280ED000212846FFF71AFD000618
:100CE00002D509490120087021462846BDE8704018
:100CF000FFF778BB0123054A0A212846FFF799FB35
:100D0000F2E7000000100440000000205400002022
:100D100070B52B48FFF714FF2A48FFF7CDFD2A488E
:100D2000FFF7CAFD30212948FFF7EBFD2848FFF700
:100D300007FF284D2846FFF734FBFFF757FE264CE8
:100D4000014622462846FFF7CFFA2846FFF724FB44
:100D50000A212846FFF759FB1948001FFFF7F0FE4C
:100D60000820FFF7A9FD4FF48160FFF7A5FD0321DF
:100D70004FF04020FFF7C5FD1548401CFFF7E0FE8F
:100D8000164D2846FFF70DFBFFF730FE01462246C1
:100D90002846FFF7A9FA2846FFF7FEFA0A21284657
:100DA000FFF733FBFFF7D8FA0D4900200870372012
:100DB000FFF7E2FDBDE870403820FFF7DDBD000021
:100DC000040800F008100400081404000040024069
:100DD000003400F000000440A08601000010044030
:100DE0000000002005490448002309680160044A06
:100DF00004210448FFF7DABB01000020180000209E
:100E0000400000200000044070B54FF08070406C3E
:100E1000C16D404888474048FFF792FE3E48801C1D
:100E2000FFF78EFE3C48401DFFF78AFE3A48001D42
:100E3000FFF786FE3848401EFFF782FE3648401C0A
:100E4000FFF77EFE3448C01CFFF77AFE3449334E6C
:100E50000E60081D026842F001020260314802681B
:100E600022F001020260081F026842F001020260E3
:100E700000240C603F212C48FFF75FFD1F212B4809
:100E8000FFF75BFDFC214FF04020FFF756FD284D9A
:100E9000C0212846FFF751FD08212648FFF74DFDE8
:100EA00025490E600A1D106840F08000106023483C
:100EB000026822F080020260081F026842F080028D
:100EC00002600C601E4CFF212046FFF728FD0A231C
:100ED0000122FF212046FFF752FC1A4CFF21204639
:100EE000FFF71DFD0A230122FF212046FFF747FCE3
:100EF000002280212846FFF73CFDFFF709FF00F0A4
:100F0000ADF900F087F9FFF74DFEBDE87040FFF73F
:100F100065BD00008003C001010800F04B434F4C49
:100F20002055024020540240006002400050024020
:100F300000600040004002402075004020740040E6
:100F4000005000400070004070B5FF211648FFF7C8
:100F5000D5FC174C154D0002217845F82100FF21E2
:100F60001448FFF7CBFC267835F82610084380B2EA
:100F700045F82600296801200A4655F82030401C13
:100F800019431A40C0B20428F7D3A088761C21EA7E
:100F900000001043C04380B26060F0B220700428AB
:100FA00001D30020207070BD007000406800002058
:100FB000140000200050004070B56B4CE069002523
:100FC000012680B9A178694829B108221146FFF7A6
:100FD000D0FCA57004E000220821FFF7CAFCA6702F
:100FE0004FF47A70E061A06930B94FF44870A061A5
:100FF0006078012806D06670207B5D4DC00703D065
:10100000012202E06570F7E7002201212846FFF780
:10101000B0FC207B800701D5022200E000220221E3
:101020002846FFF7A6FC207B400701D5042200E0FC
:10103000002204212846FFF79CFC207B4D4E000730
:1010400013D5082211462846FFF793FC6078012843
:1010500001D1802200E0002280213046FFF789FC88
:10106000207BC00607D5102206E000220821284672
:10107000FFF77FFCEFE7002210212846FFF779FCFD
:10108000207B800601D5202200E000222021284676
:10109000FFF76FFC207B384D400601D5012200E0B0
:1010A000002201212846FFF764FC207B000601D5C1
:1010B000022200E0002202212846FFF75AFCA08904
:1010C000C00501D5042200E0002204212846FFF7D4
:1010D00050FCA089800501D5082200E000220821EB
:1010E0002846FFF746FCA0894FF04025400501D572
:1010F000042200E0002204212846FFF73AFCA089E0
:10110000000501D5082200E0002208212846FFF74B
:1011100030FCA089C00401D5102200E0002210217B
:101120002846FFF726FCA089800401D5202200E094
:10113000002220212846FFF71CFCA089400401D58D
:10114000402200E0002240212846FFF712FCA0893F
:10115000000401D5802200E000222846BDE870404E
:101160008021FFF706BC0000140000200040024070
:1011700000600240006000400050024070B5204C0A
:1011800020780025012809D11E48FFF7EDFC1D48F5
:10119000401CFFF7E9FCFFF7BBFD25701A4C6069A6
:1011A00048B9FFF7D1FED4E90101884201D0256199
:1011B000A0601920606115480068E060FFF7FCFE40
:1011C0001348012105704170022181700321C17013
:1011D0000421017105214171062181710721C1712D
:1011E00008210172092141720A2000F0F3F82069F8
:1011F000002804D1FFF7F6FD4FF49670206170BD12
:1012000000000020003400F014000020090000203D
:101210007800002010B54CF24F30FFF7D1FCBDE84C
:101220001040FFF7C6BC00F001B800000A49086989
:1012300008B1401E0861486908B1401E4861C8698C
:1012400010B1C869401EC8618869002802D0886949
:10125000401E8861704700001400002070B5204CCB
:101260002046FFF76DFC1F4D40212846FFF765FB28
:10127000402211462846FFF77CFB2046FFF760FC22
:101280001948FFF75DFC30212846FFF764FB17483B
:10129000FFF712FB1648FFF70FFB1648016821F015
:1012A00030010160FFF7A2FB134C014660234FF4AD
:1012B00016522046FFF79EFC2046FFF7D2FC4C203A
:1012C000FFF75AFB70212046FFF7DAFC08220121C4
:1012D0002046FFF7D0FC09496420887070BD0000EB
:1012E000020800F000600040041800F00114020041
:1012F0000110020028650040000001403500002078
:101300002DE9F041304F01213846FFF7BDFC04467E
:1013100001463846FFF7B2FC2C4D202C05D014F0C6
:10132000600F2B4C49D1BDE8F081294E0024FF3ECF
:101330000EE0A879315C3846FFF74FFC641C6879F1
:10134000E4B2401E6871A879401CA871082C01D233
:10135000012100E00021687900B101200140A87955
:10136000102801D3012000E000200142E1D1E879FA
:101370002870D8E7192068703846FFF726FCC1B2FC
:101380002879D0B1012818D0022802D0032814D11E
:1013900008E00020E870E8782218401CE87011701E
:1013A000032009E0E878FF2805D2E8782218401CDD
:1013B000E870117001E0012028713846FFF715FC34
:1013C0000028D7D1AFE7000000D000403500002052
:1013D0007701002070B5134C60710020A07140228D
:1013E00011461148FFF7C5FA104D114E0AE0A079D9
:1013F000295C3046FFF7F1FB6079401E6071A079EF
:10140000401CA071A079102801D2012100E0002128
:10141000607900B101200142E9D1E07920706420B7
:10142000A07070BD350000200060004078000020F2
:1014300000D000407047000100024012401380239A
:101440008024C034C035C045C046C056C057C067B0
:10145000C068C078C0790000004000401000000063
:101460000080054010000000005000401100000006
:1014700000900540110000000060004012000000D4
:1014800000A00540120000000070004013000000A2
:1014900000B00540130000000040024014000000AE
:1014A00000C0054014000000005002402E00000063
:1014B00000D005402E000000006002402F00000018
:1014C00000E005402F0000000070024030000000E6
:1014D00000F005403000000000D00340460000004E
:1014E00000000640460000000010064047000000D3
:1014F0000020064048000000003006407F00000049
:1015000000400640800000000050064084000000BB
:10151000006006408C000000004000401000000009
:101520000080054010000000005000401100000045
:101530000090054011000000006000401200000013
:1015400000A00540120000000070004013000000E1
:1015500000B00540130000000040024014000000ED
:1015600000C0054014000000005002402E000000A2
:1015700000D005402E000000006002402F00000057
:1015800000E005402F000000007002403000000025
:1015900000F005403000000000D003404300000090
:1015A0000000064043000000001006404400000018
:1015B00000200640450000000030064058000000B2
:1015C0000040064059000000005006405C0000004A
:1015D0000060064064000000007006406C000000DF
:1015E000008006406D000000009006407F00000073
:1015F0000040004000800540005000400090054041
:101600000060004000A005400070004000B00540B0
:101610000040024000C005400050024000D005409C
:101620000060024000E005400070024000F005400C
:1016300000D00340000006400010064000100640A5
:1016400000200640002006400030064000300640E2
:101650000040064000400640005006400050064052
:1016600000600640006006400070064000700640C2
:101670000080064000800640009006400090064032
:101680000007000000060000000500000004000044
:101690000003000000020000000100000000000044
:1016A0000000000018ED00E01CED00E020ED00E07F
:1016B00000E400E004E400E008E400E00CE400E002
:1016C00010E400E014E400E018E400E01CE400E0B2
:1016D00020E400E024E400E028E400E02CE400E062
:1016E00030E400E034E400E038E400E03CE400E012
:1016F00040E400E044E400E048E400E04CE400E0C2
:1017000050E400E054E400E058E400E05CE400E071
:1017100060E400E064E400E068E400E06CE400E021
:1017200070E400E074E400E078E400E07CE400E0D1
:1017300080E400E084E400E088E400E000E100E010
:1017400004E100E008E100E00CE100E010E100E06D
:1017500080E100E084E100E088E100E08CE100E06D
:1017600090E100E000E200E004E200E008E200E0D6
:101770000CE200E010E200E080E200E084E200E041
:1017800088E200E08CE200E090E200E00068890975
:10179000001C4E0E40420F0000201C0080841E00E2
:1017A00000802500999E36000040380000093D0069
:1017B00000803E0000004B00404B4C0000204E00DB
:1017C000808D5B0000C05D000080700000127A0018
:1017D00000007D0080969800001BB7000080BB00D1
:1017E000C0E8CE00647ADA000024F4000000FA00B9
:1017F00080A81201002D310100366E0140787D0174
:101800004000000000000000000100003E00080051
:101810000000000000010000A00000000200000025
:10182000000100003454010000000000000100002D
:101830002B700600000000000001000028000000DE
:10184000000000000001000027000100000000006F
:101850000001000020000000000000000001000066
:101860005000000002000000000100001AAC00005F
:1018700000000000000100001794090000000000B3
:1018800000010000169805000000000000010000A3
:101890001400000000000000000100001380080098
:1018A0000000000000010000A0000000080000008F
:1018B0000001000010000000000000000001000016
:1018C00028000000020000000001000040000000AD
:1018D00004000000000100006000000000000000A3
:1018E000000100005D000C0000000000000100008D
:1018F0005000000000000000000100004E00020047
:10190000000000000001000041AC010000000000E8
:10191000000100003C000000000000000001000089
:101920003A800900000000000001000030000000C3
:10193000000000000001000028000000000000007E
:10194000000100002700010000000000000100006D
:101950002360060000000000000100002160080074
:1019600000000000000100001E0000000000000058
:10197000000100001DC00400000000000001000084
:1019800050000000020000000001000018000000EC
:101990000000000000010000140000000000000032
:1019A00000010000600000000400000000010000D1
:1019B0000024F40030003000005A620291009100CF
:1019C00000879303D200D20000B4C40413011301B2
:1019D00000E1F50554015401000E2707950195011A
:1019E000001A00000000002040000000920C0000DF
:1019F000401A00004000002038060000A20C000041
:101A000000000000000000000000000000000000D6
:101A100000000000000000000000000000000000C6
:101A200000000000000000000000000000000000B6
:101A300000000000000000000000000000000000A6
:04000005000002896C
:00000001FF
