:020000040000FA
:10000000D80600206D02000081020000830200007B
:10001000850200008502000085020000000000004B
:100020000000000000000000000000008502000049
:10003000850200000000000085020000810600002B
:100040008502000085020000850200008502000094
:100050008502000085020000850200008502000084
:100060008502000085020000850200008502000074
:100070008502000085020000850200008502000064
:100080008502000085020000E504000085020000F2
:100090008502000085020000850200008502000044
:1000A0008502000085020000850200008502000034
:1000B0008502000085020000850200008502000024
:1000C0008502000085020000850200008502000014
:1000D0008502000085020000850200005103000037
:1000E0007D03000000000000000000008502000009
:1000F00085020000850200008502000085020000E4
:1001000085020000850200008502000085020000D3
:1001100000000000000000008502000085020000D1
:1001200085020000850200008502000085020000B3
:1001300085020000850200008502000085020000A3
:1001400000000000000000000000000000000000AF
:100150008502000085020000850200008502000083
:10016000000000000000000000000000000000008F
:10017000000000000000000000000000000000007F
:10018000000000000000000000000000000000006F
:10019000000000000000000000000000000000005F
:1001A000000000000000000000000000000000004F
:1001B0008502000085020000850200008502000023
:1001C0008502000085020000850200008502000013
:1001D0008502000085020000850200008502000003
:1001E000850200008502000085020000000000007A
:1001F000000000008502000085020000850200006A
:1002000085020000850200000000000000000000E0
:1002100085020000850200008502000085020000C2
:1002200085020000850200008502000085020000B2
:1002300085020000850200008502000085020000A2
:100240008502000085020000850200008502000092
:100250008502000085020000850200008502000082
:100260008502000085020000850200004EF68850DD
:10027000CEF20000016841F47001016000F004B8A2
:10028000FEE7FEE7FEE7000000F002F800F03CF8B1
:100290000AA090E8000C82448344AAF10107DA45E1
:1002A00001D100F031F8AFF2090EBAE80F0013F0F7
:1002B000010F18BFFB1A43F001031847481800004C
:1002C00068180000103A24BF78C878C1FAD85207DD
:1002D00024BF30C830C144BF04680C6070470000C0
:1002E0000023002400250026103A28BF78C1FBD83F
:1002F000520728BF30C148BF0B6070471FB501F0DF
:1003000027F91FBD10B510BD00F021FC1146FFF705
:10031000F5FF00F091F900F03FFC03B4FFF7F2FFA6
:1003200003BC00F043FC0000EFF3108072B670478E
:10033000EFF310807047EFF3108062B6704730BF64
:10034000704780F311887047EFF311807047000009
:1003500070B5594C0021204600F0A5FC054600214F
:10036000204600F020FE000602D554490120087006
:1003700029462046BDE8704000F07EBC70B5504D67
:100380000021284600F08FFC04460A280ED00021E8
:10039000284600F008FE000602D5484901200870F2
:1003A00021462846BDE8704000F066BC0123454A5E
:1003B0000A21284600F087FCF2E74248042114385D
:1003C0000022C0E900123D4B826008225B1CC0E99C
:1003D000032314300160491F41600A21C0E9021261
:1003E00003F108010161022302460A21344800F0AA
:1003F00027BD70B5344800F0EDFF344800F0A6FE8C
:10040000334800F0A3FE3021324800F0C4FE3248E9
:1004100000F0E0FF284D284600F00DFC00F030FF12
:100420002E4C01462246284600F0C8FB284600F024
:10043000FDFB0A21284600F032FC2348001F00F093
:10044000C9FF082000F082FE4FF4816000F07EFEBC
:1004500003214FF0402000F09EFE1F48401C00F09A
:10046000B9FF174D284600F0E6FB00F009FF0146F2
:100470002246284600F0A2FB284600F0D7FB0A21BE
:10048000284600F00CFCFFF798FF0C49002008708C
:10049000372000F0BBFEBDE87040382000F0B6BE4B
:1004A00006480F49401C074A096801600023143AB6
:1004B0000421014800F0C4BC0000044000000020FA
:1004C0000010044050000020040800F00810040050
:1004D0000814040000400240003400F0A08601002F
:1004E0001800002010B5584C207818B94FF0804003
:1004F00001F024F80120207010BD10B54FF07040BD
:1005000000F068FF222000F081FE00F0B9FE0146F5
:100510004FF08044204601F014F8204601F013F813
:100520002046BDE8104001F004B870B54FF080706F
:10053000406CC16D45488847454800F04BFF444832
:10054000801C00F047FF4248401D00F043FF404838
:10055000001D00F03FFF3E48401E00F03BFF3C48BE
:10056000401C00F037FF3A48C01C00F033FF3A4906
:10057000384E0E60081D026842F0010202603748E2
:10058000026822F001020260081F026842F00102C4
:10059000026000240C603F21314800F018FE1F214A
:1005A000304800F014FEFC214FF0402000F00FFE18
:1005B0002D4DC021284600F00AFE08212B4800F0EE
:1005C00006FE2B490E600A1D106840F08000106086
:1005D0002848026822F080020260081F026842F088
:1005E000800202600C60244CFF21204600F0E1FDF7
:1005F0000A230122FF21204600F00BFD1F4CFF21A2
:10060000204600F0D6FD0A230122FF21204600F0FB
:1006100000FD00228021284600F0F5FDFFF7E9FEED
:1006200000F0A4F900F02EF800F006FFFFF765FFD8
:10063000BDE8704000F01CBEFFF777FF0025024CBC
:1006400000F03DF92570FBE7110000208003C00198
:10065000010800F04B434F4C20550240205402400B
:100660000060024000500240006000400040024034
:100670002075004020740040005000400070004091
:1006800000F048B910B54CF24F3000F0E3FEBDE881
:10069000104000F0D8BE000002480349014A034B55
:1006A00070470000D8020020D8060020D8020020A1
:1006B00070B5FF21A24800F06BFDA34CA14D0002D4
:1006C000217845F82100FF21A04800F061FD26783F
:1006D00035F82610084380B245F826002968012025
:1006E0000A4655F82030401C19431A40C0B204286D
:1006F000F7D3A088761C21EA00001043C04380B2E3
:100700006060F0B22070042801D30020207070BD1A
:1007100070B58D4CE0690025012680B9A1788C4820
:1007200029B10822114600F06EFDA57004E00022F8
:10073000082100F068FDA6704FF47A70E061A069AE
:1007400030B94FF44870A0616078012806D0667017
:10075000207B804DC00703D0012202E06570F7E7DF
:1007600000220121284600F04EFD207B800701D5A4
:10077000022200E000220221284600F044FD207BF6
:10078000400701D5042200E000220421284600F0A1
:100790003AFD207B704E000713D5082211462846EB
:1007A00000F031FD6078012801D1802200E00022B4
:1007B0008021304600F027FD207BC00607D510229F
:1007C00006E000220821284600F01DFDEFE7002288
:1007D0001021284600F017FD207B800601D520223D
:1007E00000E000222021284600F00DFD207B5B4D1B
:1007F000400601D5012200E000220121284600F038
:1008000002FD207B000601D5022200E00022022129
:10081000284600F0F8FCA089C00501D5042200E0BC
:1008200000220421284600F0EEFCA089800501D5B5
:10083000082200E000220821284600F0E4FCA089FC
:100840004FF04025400501D5042200E0002204219C
:10085000284600F0D8FCA089000501D5082200E058
:1008600000220821284600F0CEFCA089C00401D552
:10087000102200E000221021284600F0C4FCA089CC
:10088000800401D5202200E000222021284600F02B
:10089000BAFCA089400401D5402200E0002240219A
:1008A000284600F0B0FCA089000401D5802200E0B9
:1008B00000222846BDE87040802100F0A4BC70B53D
:1008C000274C20780025012809D1264800F096FD04
:1008D0002448401C00F092FDFFF78BFD25701A4C58
:1008E000606948B9FFF7E4FED4E90101884201D00C
:1008F0002561A060192060611B480068E060FFF777
:1009000007FF2069002804D1FFF7CAFD4FF4967055
:10091000206170BD0C49086908B1401E0861486932
:1009200008B1401E4861C86910B1C869401EC8615D
:100930008869002802D08869401E886170470000DD
:1009400000700040640000201400002000500040AF
:100950000040024000600240006000400050024041
:1009600000000020003400F00900002070B56C4C3D
:10097000204600F02FFD6B4D4021284600F027FC5B
:1009800040221146284600F03EFC204600F022FDA1
:10099000654800F01FFD3021284600F026FC634822
:1009A00000F0D4FB624800F0D1FB6248016821F0FE
:1009B0003001016000F064FC5F4C014660234FF49D
:1009C0001652204600F066FD204600F09AFD4C20AD
:1009D00000F01CFC7021204600F0A2FD082201213D
:1009E000204600F098FD55496420887070BD2DE9BF
:1009F000F041534F0121384600F096FD0446014670
:100A0000384600F08BFD4D4D202C05D014F0600FC2
:100A10004C4C49D1BDE8F0814A4E0024FF3E0EE027
:100A2000A879315C384600F028FD641C6879E4B28E
:100A3000401E6871A879401CA871082C01D20121C0
:100A400000E00021687900B101200140A879102858
:100A500001D3012000E000200142E1D1E8792870B3
:100A6000D8E719206870384600F0F9FCC1B228793F
:100A7000D0B1012818D0022802D0032814D108E0F0
:100A80000020E870E8782218401CE87011700320FC
:100A900009E0E878FF2805D2E8782218401CE870C1
:100AA000117001E001202871384600F0EEFC0028AA
:100AB000D7D1AFE770B50446214D03E02846641C4A
:100AC00000F0D5FC21780029F8D170BD70B51B4C21
:100AD00060710020A07140221146124800F093FB83
:100AE000184D174EFF3D0AE0A079295C304600F012
:100AF000C4FC6079401E6071A079401CA071A0798F
:100B0000102801D2012100E00021607900B101200C
:100B10000142E9D1E07920706420A07070BD00002E
:100B2000020800F000600040041800F00114020008
:100B30000110020028650040000001403400002040
:100B400000D0004073010020704770477047754621
:100B500000F028F8AE4605006946534620F007002D
:100B6000854618B020B5FFF797FDBDE820404FF04F
:100B700000064FF000074FF000084FF0000B21F087
:100B80000701AC46ACE8C009ACE8C009ACE8C00954
:100B9000ACE8C0098D4670470446AFF3008020469C
:100BA000FFF7BBFB00487047740200200149182082
:100BB000ABBEFEE72600020070470000B1FBF2F377
:100BC000B1FBF3FC70B4944588BF5B1CB3F5984F40
:100BD00027D81322B3FBF2FC0CFB02F49C4219D180
:100BE000114B03EB420333F8085C03689BB243F0FC
:100BF00041040460ACF1010404F03F063543C560D4
:100C0000C4F38314846103600CFB02F0B1FBF0F0C9
:100C100070BC7047521E042ADCD25B1CB3F5984F9F
:100C2000D7D970BC002070475A150000016821F028
:100C300001010160704701210160016A11F4004F58
:100C4000FBD1B02141620021416381630121026A2D
:100C500012F4004FFBD10162491C2029F7D90C2165
:100C600041620121026A12F4004FFBD10162491C6A
:100C70002029F7D940687047B1F5004F04BF40689C
:100C80007047026A12F4004FFBD10822426201F061
:100C90003F010162016A11F4004FFBD17047026805
:100CA000114301607047002904BF006970470129A2
:100CB0001CBF00207047D0F84011D0F8440189B221
:100CC00041EA004070472DE9F0014FF0730C002B12
:100CD00018BF4FF07B0CC0F884C001F03F06C0F88D
:100CE0008060D0F8801011F4004FFAD1D0F888104D
:100CF0008DB2D0F88C101FFA81FCD0F890108CB215
:100D0000D0F894108BB2D0F89810002789B211F463
:100D1000807F03F40058976003D0B8F1000F03D030
:100D200006E0B8F1000F03D04FF04008C2F8088089
:100D300013F4804F04BFC3F38A04146008D0C3F3D4
:100D40000C0844EA08441460946844F00404946075
:100D500011F4804F03D0946844F48074946011F4CB
:100D6000805F2DD013F4804F0DD0CCF30C0345EAF7
:100D700003436FF060445360A3420FD1137A13F022
:100D8000400F0FD10AE0CCF38A03A3F5E06453606F
:100D9000FF3C03D1137A13F0400F03D1936843F063
:100DA000080393601CF4004F03D0936843F02803BA
:100DB00093601CF4804F03D0936843F01803936052
:100DC00011F4006F03D0936843F00103936011F4B2
:100DD000806F03D0936843F00203936011F4004FD7
:100DE00002BFD760BDE8F001704701F00F0CC2F8F8
:100DF0000CC0117A11F0400F11D10021156900F1DA
:100E00009C03BCF1000F0AD953F8044B6C54491CE5
:100E10008C4502D9240A6C54491C6145F4D3042141
:100E2000C0F88410C0F88060D0F8801011F4004F32
:100E3000FAD1906840F080009060BDE8F001704702
:100E40002DE9FF4F4FF0000A016A11F4004FFBD16A
:100E5000D2F80090B9F5006F06D2117A11F0040FA4
:100E600008BF4FF0000B01D04FF0010B00274FF0EF
:100E700093083D4639463E46BC46052B24BF04B088
:100E8000BDE8F08FDFE803F003071A0A14004FF4FF
:100E900080714D0110E04FF480710FE04FF4005568
:100EA00069104FF6FF7641F6FF7C4FF0D30805E05E
:100EB0004FF400554FF490514FF0010A946841F6F9
:100EC000FF7314F0080F0CD0BBF1000F08BF002611
:100ED000D2F804C00EBF03EA8C0C1FFA8CF6CCF3D8
:100EE0000C4C4FF0280E3EEA040E08BF4CF4004CA8
:100EF0004FF0180E3EEA040E08BF4CF4804C14F07C
:100F0000380F1CBF41F4805148F0400848F02008D9
:100F1000BBF1000F07D0C9F30C431FFA89F72B432D
:100F200043F4404904E003EA89032B4343F40049B6
:100F3000D56805F00F030B4314F4007F08BF43F09E
:100F4000800314F0010F18BF43F4006314F0020F84
:100F500018BF43F48063BAF1000F14D00021D2F817
:100F600010A000F13C04002D0DD91AF80120491CF5
:100F70008D4204D91AF801B0491C42EA0B2244F808
:100F8000042BA942F1D3C0F824808662C0F82CC09B
:100F90000763C0F834908363019901F03F01016257
:100FA00004B0BDE8F08FC1B1012904BFD0F8001131
:100FB000D0F8040116D0022904BFD0F82011D0F8CF
:100FC00024010FD0032911BF0021D0F86011D0F8FF
:100FD000640141EA00410846704741686FF01F0212
:100FE0004260F8E741EA0041F5E7D0F8003412F03A
:100FF000010F14BF0B438B43C0F8003412F0020FF3
:10100000D0F8202414BF114322EA0101C0F82014B3
:1010100070472DE9F00301264FF0000C0325C2F3C1
:10102000411706FA0CF40C4211D0D0F8C48F4FEAE5
:101030004C0405FA04F928EA0908C0F8C48FD0F86E
:10104000C48F07FA04F448EA0404C0F8C44F0CF152
:10105000010C0CF0FF0CBCF1080FE2D3D0F800C576
:1010600012F0010F14BF4CEA010C2CEA010CC0F87D
:1010700000C5D0F804C512F0020F14BF4CEA010CF1
:101080002CEA010CC0F804C5D0F808C512F0040F12
:1010900014BF4CEA010C2CEA010CC0F808C5D0F8CA
:1010A00018C512F0080F14BF4CEA010C2CEA010C11
:1010B000C0F818C512F0100FD0F83C2514BF0A4331
:1010C0008A43C0F83C25D0F80C2513F0010F14BF5B
:1010D0000A438A43C0F80C25D0F8102513F0020FFC
:1010E00014BF0A438A43C0F81025D0F8142513F022
:1010F000040F14BF0A438A43C0F81425D0F81C25F6
:1011000013F0080F14BF0A438A43C0F81C25D0F817
:10111000442513F4007F14BF0A438A43C0F84425D2
:10112000D0F8402513F4407F14BF0A438A43C0F827
:101130004025D0F82825002B0CBF114322EA0101DD
:10114000C0F82815BDE8F003704700000E4AC0F350
:101150000741D26E01238B401A420C4A1ABF02EBA0
:10116000C101496852F83110020AD1F82C354FF00C
:101170000F0C0CFA02FC00F00F0023EA0C03904065
:101180001843C1F82C05704700E00F401417000009
:1011900050F82100704730B50C4605460222FFF793
:1011A00024FF21462846BDE8304008236622FFF789
:1011B00030BF30B50C4605460022FFF716FF21462A
:1011C0002846BDE8304008230122FFF722BF30B592
:1011D0000C46054608230122FFF71BFF214628463F
:1011E000BDE830400122FFF700BF30B50C46054690
:1011F0000222FFF7FAFE21462846BDE830400823C8
:101200000122FFF706BF40F8212070471649042845
:1012100004BF086840F4803018D0052804BF08686F
:1012200040F4003012D0062812D00F2815D0102814
:1012300038BF7047103800F01F01012202FA01F197
:1012400042090A4850F82200016070470860704760
:10125000086840F48020086070474FF0E020016982
:1012600041F002010161704724ED00E060180000C8
:1012700010B5FFF760F8002818BF012010BD00006E
:1012800070B44B4D2A6E296F11F0004F14BF01F05E
:10129000700002F03000202808BF464818D005DC56
:1012A00088B1102808BF444812D009E0302808BF90
:1012B00047F230500CD0702808BF4FF4004007D0E0
:1012C00070BC002070477C203C4B00EA121018587C
:1012D0004FF0FF3311F0004F02D011F4006F06D031
:1012E00001F0004C02F400645CEA040C36D1D5F83D
:1012F00060C1D5F8644104F01F06C4F30424641CE3
:10130000761C16FB04F46400B0FBF4F0CCF3090483
:101310004443CCF3892C00FB0CF0D5F810C004EB4F
:10132000902042F480020CF4704CBCF5804F08BF52
:10133000234B13D009DCBCF5005F08BF214B0DD057
:10134000BCF5405F08BF204B08E0BCF5E04F08BF8C
:101350001E4B03D0BCF5104F08BF1D4B12F4800F7D
:1013600021D011F0004F19D011F0804F09D011F4A5
:10137000006F0CD001F0004C02F400625CEA020243
:1013800005D0C1F3C551491CB0FBF1F00BE04000A2
:10139000C1F38651491CB0FBF1F004E0C2F3C35124
:1013A000491CB0FBF1F0834238BF184670BC70474F
:1013B00000E00F4000093D000024F400B8180000D0
:1013C000005A620200B4C40480F0FA0240787D0141
:1013D000002D3101C0F307230749C0B2194401F0C1
:1013E0007043C1F3130143EA411141EA800040F028
:1013F000007001220260704700E60F40C0F307232F
:101400000C49C0B2194401F07043C1F3130143EA1F
:10141000411141EA800040F0007181B001220A6070
:10142000002200920098401C00901028FAD30A6015
:1014300001B0704700E50F404FF0E020016941F036
:101440000501016170474FF0E020016941F00201A0
:10145000016170474FF0E021401E4861704781698B
:1014600011F0100F0CBF00684FF0FF307047826919
:1014700012F0200FFBD101607047826912F0200F3B
:1014800006BF01600120002070478069012121EA28
:1014900010107047D0F818C01CF0080FFAD1D0F81F
:1014A0002CC02CF0100CC0F82CC0D0F830C02CF0A0
:1014B000010C2CF4407CC0F830C0D0F830C0B1EB47
:1014C000021F34BF4CF0200C2CF0200CC0F830C0B0
:1014D00038BF5208C900B1FBF2F1491C49088A091A
:1014E000426201F03F018162C36200218161C16AF1
:1014F00041F01001C162016B40F2013211430163FE
:101500007047C16A41F01001C162016B40F20132C3
:101510001143016370471143416370474164704751
:10152000826B114381637047002914BF006CC06B4C
:101530007047816841F00101816070470121C160FD
:10154000704701607047816841F002018160704717
:101550004FF04070E1EE100A7047000100024012A7
:10156000401380238024C034C035C045C046C056D7
:10157000C057C067C068C078C07900000040004014
:1015800010000000008005401000000000500040E6
:1015900011000000009005401100000000600040B4
:1015A0001200000000A00540120000000070004082
:1015B0001300000000B0054013000000004002408E
:1015C0001400000000C0054014000000005002405C
:1015D0002E00000000D005402E00000000600240F8
:1015E0002F00000000E005402F00000000700240C6
:1015F0003000000000F005403000000000D0034043
:1016000046000000000006404600000000100640B2
:10161000470000000020064048000000003006405F
:101620007F0000000040064080000000005006409F
:1016300084000000006006408C0000000040004074
:101640001000000000800540100000000050004025
:1016500011000000009005401100000000600040F3
:101660001200000000A005401200000000700040C1
:101670001300000000B005401300000000400240CD
:101680001400000000C0054014000000005002409B
:101690002E00000000D005402E0000000060024037
:1016A0002F00000000E005402F0000000070024005
:1016B0003000000000F005403000000000D0034082
:1016C00043000000000006404300000000100640F8
:1016D00044000000002006404500000000300640A5
:1016E000580000000040064059000000005006402D
:1016F0005C000000006006406400000000700640CE
:101700006C000000008006406D0000000090064064
:101710007F00000000400040008005400050004075
:10172000009005400060004000A0054000700040AF
:1017300000B005400040024000C00540005002409B
:1017400000D005400060024000E00540007002400B
:1017500000F0054000D003400000064000100640A5
:1017600000100640002006400020064000300640E1
:101770000030064000400640004006400050064051
:1017800000500640006006400060064000700640C1
:101790000070064000800640008006400090064031
:1017A0000090064000070000000600000005000051
:1017B000000400000003000000020000000100001F
:1017C000000000000000000018ED00E01CED00E04B
:1017D00020ED00E000E400E004E400E008E400E0C4
:1017E0000CE400E010E400E014E400E018E400E0A1
:1017F0001CE400E020E400E024E400E028E400E051
:101800002CE400E030E400E034E400E038E400E000
:101810003CE400E040E400E044E400E048E400E0B0
:101820004CE400E050E400E054E400E058E400E060
:101830005CE400E060E400E064E400E068E400E010
:101840006CE400E070E400E074E400E078E400E0C0
:101850007CE400E080E400E084E400E088E400E070
:1018600000E100E004E100E008E100E00CE100E05C
:1018700010E100E080E100E084E100E088E100E0C8
:101880008CE100E090E100E000E200E004E200E032
:1018900008E200E00CE200E010E200E080E200E09C
:1018A00084E200E088E200E08CE200E090E200E008
:1018B00000688909001C4E0E40420F0000201C00E9
:1018C00080841E0000802500999E3600004038006C
:1018D00000093D0000803E0000004B00404B4C00E2
:1018E00000204E00808D5B0000C05D000080700015
:1018F00000127A0000007D0080969800001BB7005F
:101900000080BB00C0E8CE00647ADA000024F40056
:101910000000FA0080A81201002D310100366E018E
:1019200040787D0140000000000000000001000040
:101930003E0008000000000000010000A0000000C0
:10194000020000000001000034540100000000000B
:10195000000100002B7006000000000000010000E4
:101960002800000000000000000100002700010026
:101970000000000000010000200000000000000046
:101980000001000050000000020000000001000003
:101990001AAC0000000000000001000017940900CC
:1019A0000000000000010000169805000000000083
:1019B0000001000014000000000000000001000011
:1019C000138008000000000000010000A0000000DB
:1019D00008000000000100001000000000000000EE
:1019E00000010000280000000200000000010000CB
:1019F0004000000004000000000100006000000042
:101A000000000000000100005D000C00000000006C
:101A10000001000050000000000000000001000074
:101A20004E000200000000000001000041AC010077
:101A300000000000000100003C0000000000000069
:101A4000000100003A8009000000000000010000D1
:101A5000300000000000000000010000280000002D
:101A6000000000000001000027000100000000004D
:101A700000010000236006000000000000010000DB
:101A80002160080000000000000100001E000000AE
:101A900000000000000100001DC004000000000064
:101AA00000010000500000000200000000010000E2
:101AB00018000000000000000001000014000000F9
:101AC00000000000000100006000000004000000B1
:101AD000000100000024F40030003000005A6202CF
:101AE0009100910000879303D200D20000B4C40497
:101AF0001301130100E1F50554015401000E2707FD
:101B000095019501241B0000000000203C0000000E
:101B1000C4020000601B00003C0000209C06000086
:101B2000E0020000000000000000000000000000D3
:101B300000000000000000000000000000000000A5
:101B40000000000000000000000000000000000095
:101B50000000000000000000000000000000000085
:04000005000002896C
:00000001FF
